:020000040800F2
:10000000F0130020010100089D100008550F0008A2
:100010004B100008610B0008E51C00080000000000
:10002000000000000000000000000000F1160008C1
:10003000650B0008000000002915000827180008BB
:100040001701000817010008170100081701000830
:100050001701000817010008170100081701000820
:100060001701000817010008170100081701000810
:100070001701000817010008170100081701000800
:1000800017010008170100081701000817010008F0
:10009000170100081701000817010008670B000886
:1000A00017010008170100081701000817010008D0
:1000B0001701000889180008170100081701000837
:1000C00017010008170100081701000817010008B0
:1000D00017010008A91A0008F11A0008F51A00080B
:1000E000170100081701000817010008DFF80CD0FD
:1000F00000F022FC004800473D2B0008F0130020D0
:1001000005480047FEE7FEE7FEE7FEE7FEE7FEE7FD
:10011000FEE7FEE7FEE7FEE7ED000008F0B480EA48
:100120000102D40F4200B2EB410F02D20246084650
:1001300011464A0042D0C30DDDB2C1F3C752AD1A19
:10014000202D35DAC1F3160141F4000204B1524208
:10015000C5F1200602FA06F12A411044B3EBD05F44
:1001600023D0C4B1012DA0EBC35009DCF0BC4FF08B
:10017000004202EAC352DBB200F5000000F0C9BA47
:10018000400000F1807000EBC350A0F1807040EAA5
:10019000D170490009E0490841EAC071A0EBC350A1
:1001A00000F50000400800EBC350F0BC00F0A8BA16
:1001B0006142012202EB4101001BF6E7F0BC7047EF
:1001C00081F00041AAE780F00040A7E780EA010241
:1001D00010B502F00043400022D04A001FD0010EAB
:1001E00001EB1261C0F35600C2F3560240F4000066
:1001F00042F40002A0FB022000047F39140400D066
:10020000401C50EA124001D44000491EC2B20C0604
:1002100004EBD010401C4008802A02D003E00020EC
:1002200010BD20F00100002900DA0020184310BDA5
:1002300030B480EA010202F0004530F0004221F0C3
:10024000004013D090B1C30DD40DC2F31601C0F31A
:100250001600E41A41F4000140F400027D3491429A
:1002600001D3641C00E04900002C02DA30BC0020FD
:1002700070474FF400000023914201D3891A0343D1
:1002800040084FEA4101F7D151B1914202D14FF0FC
:10029000004105E002D24FF0010101E06FF00101E1
:1002A00003EBC450284430BC00F02ABA2DE9FE4FBD
:1002B000804681EA0300C00F0C46009021F0004107
:1002C00023F00045B8EB0200A94105D24046214683
:1002D00090461C460B46024623F00040104347D090
:1002E000270DC7F30A00C3F30A510290401A019088
:1002F00040286BDAC3F3130040F4801B0098924649
:1003000020B10023D2EB030A63EB0B0B0198594693
:10031000C0F14002504600F0C2F906460D46504674
:100320005946019A00F0DAF910EB08006141002407
:1003300087EA115284EAE7731A4340D0009A62B305
:10034000019A012A4FEA075215DC001B61EB0201FA
:100350004FF0004202EA0752CDE90042001C41F58D
:10036000801132462B4600F011FA03B0BDE8F08F41
:1003700040462146F9E7001B61EB0201001C41F5F4
:10038000801300185B412018A2F5001747EB03010A
:1003900040EAD570B6196D4111E06D084FEA360696
:1003A00045EAC0754FEA0752001B61EB0201001CD1
:1003B00041F5801149084FEA300000195141324699
:1003C0002B4603B0BDE8F04F00F0D1B900980122F0
:1003D00040000023D0EB020263EBE073009821465B
:1003E0004FEAE074B8EB000061EB0401E9E783F049
:1003F00000435BE781F0004158E72DE9FE4F81EAB9
:10040000030404F0004421F0004100944FF0000B7D
:1004100023F0004350EA01045ED052EA03045BD0AB
:10042000C3F30A54C1F30A552C44A4F2F3340194E3
:10043000A0FB0254C1F3130141F48011C3F3130371
:1004400043F4801301FB024400FB034E840A970A25
:1004500044EA815447EA8357A4FB076802958D0A52
:1004600005FB07854FEA932C04FB0C542705029DDE
:100470004FEA065847EA1637B5EB08056EEB070C4E
:10048000870E920E47EA811742EA8312A7FB020108
:10049000B6EB0B0164EB00042B0D43EA0C335E1842
:1004A00044EB1C50DA465146E7FB0201C5F3130446
:1004B0004FEA0B3343EA14534FEA0432019C43EAF8
:1004C0000603A4F10C040294009CCDE900B400F0F2
:1004D0005DF903B0BDE8F08F00200146F9E7C10FD8
:1004E00080EAE0700844CA079623002100F011B9A1
:1004F00096230022114600F00CB90EB5C10F80EA18
:10050000E0700844CA07002140F233438DE80E0032
:100510000A460B4600F03AF903B000BD70B5C1F3CE
:100520000A5201F000450024C1F3130140F2FF33E9
:1005300041F480119A4201DA002070BD40F2334349
:100540009A42A2F2334203DC524200F0B7F800E0D4
:1005500090402C43F1D0404270BD00F0004230F09A
:1005600000400AD0C10D01F56071C0F3160042EAE7
:100570000151C208400711437047002001467047EF
:1005800030B5041E71F1000404DB4FF0004440421A
:1005900064EB0101141E73F1000405DB1C464FF0EF
:1005A0000043524263EB0403994208BF904230BDBE
:1005B00001F0004330B421F0004150EA010206D0BE
:1005C0000A0DA2F56072C1F31301002A02DC30BCEF
:1005D00000207047440F44EAC104C100E01830BC59
:1005E00000EBC25000F08CB8002801DBC0F10040E5
:1005F000002901DBC1F1004181427047002801DB85
:10060000C0F10040002901DBC1F100418842704780
:1006100030B50B46014600202022012409E021FAD2
:1006200002F59D4205D303FA02F5491B04FA02F5CF
:100630002844151EA2F10102F1DC30BD2DE9F05F66
:100640000546002092469B46884606468146402441
:100650001BE0284641464746224600F02FF8534605
:100660005A46C01A914110D311461846224600F04E
:1006700016F82D1A67EB01084F462246012000218B
:1006800000F00DF817EB00094E41201EA4F1010403
:10069000DFDC484631462A464346BDE8F09F202A23
:1006A00004DB203A00FA02F1002070479140C2F1C9
:1006B000200320FA03F3194390407047202A04DBFB
:1006C000203A21FA02F00021704721FA02F3D040CB
:1006D000C2F120029140084319467047202A06DBE8
:1006E000CB17203A41FA02F043EAE07306E041FA00
:1006F00002F3D040C2F120029140084319467047EE
:100700000029A8BF7047401C490008BF20F0010025
:10071000704710B4B0FA80FC00FA0CF050EA010403
:1007200004BF10BC704749B1CCF1200421FA04F495
:1007300011FA0CF118BF012121430843A3EB0C016E
:10074000CB1D4FEA00614FEA102042BF002010BCD1
:10075000704700EBC35010440029A4BF10BC704781
:10076000401C490008BF20F0010010BC704710B5C4
:10077000141E73F1000408DA401C41F100019218C4
:100780005B411A4301D120F0010010BD2DE9F04D6D
:1007900092469B4611B1B1FA81F202E0B0FA80F2C2
:1007A00020329046FFF77BFF04460F4640EA0A00DE
:1007B00041EA0B0153465A46084313D0114653EA07
:1007C000010019D0C8F140025046FFF777FF0546F7
:1007D0000E46504659464246FFF761FF084305D092
:1007E000012004E020463946BDE8F08D0020054395
:1007F00046EAE0762C4337430A986305E40AA0EB07
:1008000008000022FD0A44EA47540A3002D50020BD
:100810000146E9E7010510196941DDE908450019BC
:100820006941BDE8F04DA2E72DE9F04D81EA0304EE
:1008300004F0004B21F0004514464FF0000A23F06D
:10084000004150EA050220D054EA01021DD0C5F350
:100850000A570246C5F31303C1F31300C1F30A5646
:1008600040F4801543F48013A7EB0608101BD6460E
:1008700008F2FD3873EB050002D308F1010801E02E
:1008800092185B41B8F1000F03DA00200146BDE881
:10089000F08D00204FF48011064684460EE0171BB1
:1008A00073EB050705D3121B63EB050306434CEA04
:1008B000010C49084FEA300092185B4150EA0107E9
:1008C000EDD152EA030012D082EA040083EA050166
:1008D000084305D0101BAB4106D20122002306E0DD
:1008E00000224FF0004302E06FF0010253101AEBB8
:1008F00006004CEB085110EB0A0041EB0B01BDE880
:10090000F04DFFF734BFC1F30A52C1F3130140F2B7
:10091000FF3341F480119A4202DA00200146704709
:1009200040F233439A42A2F2334202DC5242FFF7D2
:10093000C5BEFFF7B4BE0000064C074D06E0E068F8
:1009400040F0010394E8070098471034AC42F6D316
:10095000FFF7D0FBC83B0008E83B000810B500F0EB
:10096000A3FE00F091FE1021104800F0F1FA0220E1
:1009700002F086F810210D4800F0EAFA20210B4819
:1009800000F0DBFA012802D10949087002E00020DA
:10099000074908701021054800F0D8FA052002F038
:1009A0006FF800F093FE0248007810BD0008014087
:1009B000B900002070B5002400F076FE00F064FE5F
:1009C00000251DE06006040E052002F059F81021F4
:1009D0000D4800F0BDFA20210B4800F0AEFA0128C6
:1009E00001D1012600E000260EB1601CC4B2052032
:1009F00002F046F81021044800F0A8FA681CC5B2BD
:100A0000082DDFDB204670BD0008014010B504460C
:100A100000F03AFE00F05AFE24B920210B4800F005
:100A200095FA03E02021094800F092FA10210748C6
:100A300000F08EFA022002F023F81021034800F0A3
:100A400085FA052002F01CF810BD000000080140E6
:100A500070B5044600F018FE00F038FE002520E0D6
:100A6000052002F00DF804F0800020B120210F488D
:100A700000F06EFA03E020210C4800F067FA052030
:100A800001F0FEFF1021094800F062FA052001F094
:100A9000F7FF1021054800F059FA6006040E681CA3
:100AA000C5B2082DDCDBFFF759FF70BD000801401F
:100AB00010B500F0E9FD00F009FE20210A4800F021
:100AC00047FA1021084800F043FA022001F0D8FF4D
:100AD0002021054800F03AFA022001F0D1FF102150
:100AE000014800F033FA10BD0008014010B500F0D5
:100AF000CBFD00F0EBFD20210A4800F027FA102181
:100B0000084800F025FA022001F0BAFF202105482C
:100B100000F01EFA022001F0B3FF1021014800F09E
:100B200015FA10BD0008014008B50121042000F0AD
:100B30000DFD4FF48070ADF8000003208DF8020029
:100B400010208DF803006946034800F06BF901207E
:100B50000249086008BD000000080140A0012142D0
:100B600000BFFEE7704710B5202000F00DF820B15F
:100B700001F0E8FE202000F001F810BD01490860F6
:100B80007047000014040140014600200022074B7A
:100B90001B6803EA0102054B14331B680B4013B1B9
:100BA0000AB1012000E0002070470000000401406D
:100BB000002123498279002A3AD00A461268036844
:100BC0009A430B461A600A1D126803689A430B1D6C
:100BD0001A60027911440A6803681A430A60184AC5
:100BE0000832126803689A43154B08331A601A1DBD
:100BF000126803689A43124B0C331A604279102A28
:100C00000ED11A1F126803681A430D4B08331A607D
:100C10001A1D126803681A43094B0C331A600DE061
:100C20000749427911440A6803681A430A6005E0DB
:100C3000027911440A6803689A430A607047000009
:100C40000004014010B537A20021084600F0F1FB76
:100C500038A13C4801F048F84FF47A7001F0EAFE00
:100C600000F074FA33A1374801F03EF84FF47A707F
:100C700001F0E0FE00F06AFA4FF47A7001F0DAFE5B
:100C800031A20021084600F0D4FB33A12D4801F029
:100C90002BF84FF47A7001F0CDFE4FF47A7001F02A
:100CA000C9FE4FF47A7001F0C5FE00F04FFA4FF420
:100CB0007A7001F0BFFE31A20021084600F0B9FBB6
:100CC00032A1204801F010F84FF47A7001F0B2FE22
:100CD00000F03CFA4FF47A7001F0ACFE2FA2002134
:100CE000084600F0A6FB31A1164800F0FDFF4FF4C6
:100CF0007A7001F09FFE00F029FA4FF47A7001F04B
:100D000099FE30A20021084600F093FB31A10D4866
:100D100000F0EAFF4FF47A7001F08CFE00F016FA52
:100D200010BD0000312041542B43574D4F44452006
:100D30000000000041542B43574D4F44453D320DB8
:100D40000A00000000380140322041542B43575321
:100D5000415020200000000041542B435753415084
:100D60003D2257494649222C223132333435363719
:100D70003839222C31312C340D0A000033204154F3
:100D80002B4349504D5558200000000041542B433F
:100D900049504D55583D310D0A0000003420415452
:100DA0002B434950534552564552200041542B4342
:100DB00049505345525645523D312C353030300D57
:100DC0000A000000352041542B43495053544F2012
:100DD0000000000041542B43495053544F3D300D07
:100DE0000A00000030B500228B071C0F0F2303FA06
:100DF00004F20B4B8C1053F824309343084C8D10A5
:100E000044F8253023468C1053F824308C07240FE7
:100E100000FA04F42343024C8D1044F8253030BD11
:100E2000080001402DE9F04102460025002600207F
:100E300000230024002791F803C00CF00F0591F85F
:100E400003C00CF0100CBCF1000F03D091F802C0ED
:100E50004CEA050591F800C0BCF1000F31D01468D0
:100E600000202BE04FF0010C0CFA00F3B1F800C0A9
:100E70000CEA03069E4220D183004FF00F0C0CFABF
:100E800003F7BC4305FA03FC4CEA040491F803C0E1
:100E9000BCF1280F06D14FF0010C0CFA00FCC2F88F
:100EA00014C00AE091F803C0BCF1480F05D14FF01F
:100EB000010C0CFA00FCC2F810C0401C0828D1D369
:100EC0001460B1F800C0BCF1FF0F34DD546800209D
:100ED0002EE000F1080C4FF0010808FA0CF3B1F80D
:100EE00000C00CEA03069E4221D183004FF00F0C94
:100EF0000CFA03F7BC4305FA03FC4CEA040491F82E
:100F000003C0BCF1280F05D100F1080C08FA0CF859
:100F1000C2F8148091F803C0BCF1480F07D100F16A
:100F2000080C4FF0010808FA0CF8C2F81080401CB9
:100F30000828CED35460BDE8F081024600209368B3
:100F40000B400BB1012000E0002070474161704769
:100F50000161704700BFFEE710B540210348FFF76D
:100F6000F7FF40210148FFF7F1FF10BD000C0140E1
:100F700010B50B21312000F031FC08212C2000F0AD
:100F80002DFC08212D2000F029FC80212E2000F0CE
:100F900025FC00211E2000F021FC00211F2000F074
:100FA0001DFC0521202000F019FC10BD10B5052006
:100FB00001F040FDE0220221AE2002F085F800227F
:100FC0000321AE2002F080F800220421AE2002F0BE
:100FD0007BF800220521AE2002F076F800220621DF
:100FE000AE2002F071F84F220821AE2002F06CF81A
:100FF00003220921AE2002F067F82A220A21AE203E
:1010000002F062F82F220C21AE2002F05DF82F22B0
:101010000D21AE2002F058F801222121AE2002F06D
:1010200053F80021AE2001F085FF0121AE2001F030
:1010300081FF10BD10B540220921AE2002F044F816
:1010400008B1012010BD0020FCE700BFFEE7000052
:1010500010B5FFF72DFDA620FFF7FAFC3220FFF7B1
:10106000F7FCFFF725FDA720FFF7F2FC00240EE0B8
:10107000FFF7A0FC08490855052C03D10120FFF714
:10108000C5FC02E00020FFF7C1FC601CC4B2062CC6
:10109000EEDBFFF72BFD10BDAC000020704708B55C
:1010A0004FF4C06000F048F817208DF800000220CF
:1010B0008DF801008DF8020001208DF803006846CC
:1010C00000F002F808BD000070B5002100230F22D7
:1010D000C47804B3154C246804F4E064C4F5E064F7
:1010E000210AC1F10403CA40447804FA03F1847868
:1010F0001440214309010E4C0678A155047804F0F0
:101100001F050124AC4005786D11AD0005F1E02507
:10111000C5F8004109E0047804F01F050124AC4043
:10112000044D0678761145F8264070BD0CED00E0C0
:1011300000E400E080E100E002490143024A11605E
:10114000704700000000FA050CED00E070B50024C7
:1011500018E004F1B000002100F05FF9002108461A
:1011600000F05BF90021102000F057F9002505E0A0
:101170000121002000F051F9681CC5B2802DF7DB79
:10118000601CC4B2082CE4DB70BD000010B5402127
:101190000748FFF7DDFE80210548FFF7D9FE8021D3
:1011A0000348FFF7D3FE40210148FFF7CFFE10BDF3
:1011B000000C014010B540210548FFF7C9FE802111
:1011C0000348FFF7C3FE80210148FFF7C1FE10BDB1
:1011D000000C014008B50121082000F0B7F94020BB
:1011E000ADF8000010208DF8030003208DF80200F8
:1011F00069464748FFF716FE40214548FFF7A8FE1D
:101200000121082000F0A2F98020ADF80000102094
:101210008DF8030003208DF8020069463C48FFF773
:1012200001FE80213A48FFF793FE4FF4487001F029
:1012300001FC0021AE2000F0F0F80021084600F08B
:10124000ECF80021102000F0E8F80021402000F028
:10125000E4F80021B02000F0E0F80021812000F047
:10126000DCF80021FF2000F0D8F80021A12000F0D8
:10127000D4F80021A62000F0D0F80021A82000F02A
:10128000CCF800213F2000F0C8F80021C82000F071
:10129000C4F80021D32000F0C0F80021084600F077
:1012A000BCF80021D52000F0B8F80021802000F023
:1012B000B4F80021D82000F0B0F80021052000F09B
:1012C000ACF80021D92000F0A8F80021F12000F0AE
:1012D000A4F80021DA2000F0A0F80021122000F08C
:1012E0009CF80021DB2000F098F80021302000F06D
:1012F00094F800218D2000F090F80021142000F0D7
:101300008CF80021AF2000F088F8FFF71FFF08BD20
:10131000000C014070B504460D4605F1B0000021F7
:1013200000F07BF8102141EA1410002100F075F85C
:1013300004F00F00002100F070F870BD2DE9F047B7
:1013400080460E4691461F4600250024A9F1200044
:10135000C5B2B8F17F0F02DDA046B01CC6B2102F97
:1013600000D024D131464046FFF7D4FF002408E0E6
:1013700004EB0511184A505C012100F04EF8601C86
:10138000C4B2082CF4DB701CC1B24046FFF7C2FFA8
:10139000002409E004EB051108310F4A505C0121DB
:1013A00000F03BF8601CC4B2082CF3DB12E03146BD
:1013B0004046FFF7AFFF00240AE005EB4501074A6E
:1013C00002EB4101085D012100F027F8601CC4B266
:1013D000062CF2DBBDE8F087D8350008B0330008F2
:1013E0002DE9F04104460F461546984600260FE0C9
:1013F000AA5D434639462046FFF7A0FF04F10800E6
:10140000C4B2782C02DD0024B81CC7B2701CC6B26E
:10141000A85D0028ECD1BDE8F08170B504460D460A
:101420001DB1E0B200F0C4FC02E0E0B200F0AAFCA2
:1014300070BD0FB430B589B004460D460FA80090BA
:10144000202101A8009B0E9A00F0DCFC00200090F7
:10145000102301AA29462046FFF7C2FF09B030BC7D
:101460005DF814FB2DE9FF4719480078002825D1C5
:1014700018A20221FFF7DDFF1B480068FFF72FF8D5
:1014800081461A49FEF7D4FE0446FFF766F8054682
:101490000E4617494868FFF760F88DE86300144866
:1014A00014A2042103680020FFF7C3FF174818A205
:1014B000062103680020FFF7BCFF07E0FFF746FEA8
:1014C000102316A200210846FFF78AFFBDE8FF8718
:1014D0009400002048656172742053706F322020A0
:1014E00054656D7000000000500000200000204195
:1014F00004000020253033642020202530322E3196
:101500006620202530322E31662000009800002011
:10151000537465703A2564202020000052455345DD
:1015200054205359530000007047000029B1064A67
:10153000D2690243044BDA6104E0034AD269824370
:10154000014BDA61704700000010024029B1064AE1
:1015500092690243044B9A6104E0034A9269824310
:10156000014B9A61704700000010024030B5002125
:101570000022002400232D4D6D6805F00C0121B1DF
:10158000042905D0082923D105E0294D056022E072
:10159000274D05601FE0254D6D6805F47012234D41
:1015A0006D6805F48034022505EB92421CB9214D8B
:1015B000554305600BE01D4D6D6805F400351DB108
:1015C0001C4D5543056002E0194D5543056002E08E
:1015D000174D056000BF00BF144D6D6805F0F001A8
:1015E0000909154D6B5C0568DD4045600F4D6D6860
:1015F00005F4E061090A104D6B5C4568DD408560CB
:101600000A4D6D6805F46051C90A0B4D6B5C456865
:10161000DD40C560054D6D6805F44041890B074DFF
:101620006B5CC568B5FBF3F5056130BD0010024089
:1016300000127A0000093D00240000203400002040
:101640002DE9F041FFF704FD0C4880780B49C9787B
:1016500000EB0124002C00DA64422046FEF74DFF27
:1016600005464FF03332064BFEF7C7FE0746FEF73E
:101670009FFF04490860BDE8F0810000AC00002035
:1016800033330F40C000002008B51020ADF8000033
:101690008DF8030003208DF8020069460148FFF72A
:1016A000C1FB08BD0008014008B52020ADF80000CE
:1016B00048208DF8030003208DF802006946024897
:1016C000FFF7B0FB08BD00000008014008B520206E
:1016D000ADF8000010208DF8030003208DF8020003
:1016E00069460248FFF79EFB08BD00000008014064
:1016F000704710B500F002F810BD00000CB50020D6
:10170000019000903348006840F48030314908600F
:1017100000BF3048006800F4003000900198401C81
:101720000190009818B90198B0F5A06FF1D129483F
:10173000006800F4003010B10120009001E00020AA
:1017400000900098012843D12348006840F0100021
:10175000214908600846006820F003000860084638
:10176000006840F0020008601A4840681949486063
:101770000846406848600846406840F48060486019
:101780000846406820F47C1048600846406840F4F1
:10179000E81048600846006840F08070086000BFAC
:1017A0000C48006800F000700028F9D00948406833
:1017B00020F00300074948600846406840F00200F6
:1017C000486000BF0348406800F00C000828F9D1C9
:1017D0000CBD0000001002400020024070B505461C
:1017E0000C46FFF765F9A620FFF732F92846FFF708
:1017F0002FF92046FFF72CF9FFF778F970BD042880
:1018000008D14FF0E021096941F004014FF0E022D6
:10181000116107E04FF0E021096921F004014FF068
:10182000E02211617047704710B51348006840F01E
:1018300001001149086008464068104908400E49F7
:101840004860084600680E4908400B490860084691
:10185000006820F4802008600846406820F4FE00FC
:1018600048604FF41F008860FFF743FF4FF00060AF
:101870000449086010BD0000001002400000FFF89D
:10188000FFFFF6FE08ED00E010B50121254800F04D
:101890009EF8002841D024480068401C2249086076
:1018A000FFF7CEFE214922480068FEF7A7FE06D2C8
:1018B00020491F480068FEF783FC1D4908601E4848
:1018C0000068142802D901201C4908701C491848D6
:1018D0000068FEF793FE05D31A4915480068FEF725
:1018E00083FE05D214480068401C1349086004E0D8
:1018F00015480068401C144908601348006860B12E
:101900000D48006848B111480068401C0F49086044
:1019100000200D490860084908600121014800F0D5
:1019200047F810BD000400409000002000A6C74604
:10193000C000002000927948A400002094000020FC
:101940000000FA430000FAC3A8000020980000201D
:101950007FB505460C4601210220FFF7E7FDADF8F3
:101960000450ADF800400020ADF80600ADF80200CC
:1019700069460E4800F046F8012211460B4800F077
:1019800037F80121094800F016F81D208DF80C00E9
:1019900001208DF80D0002208DF80E0001208DF839
:1019A0000F0003A8FFF790FB7FBD0000000400407C
:1019B000CA430282704721B1028842F001020280CC
:1019C00004E002884FF6FE731A400280704730B57B
:1019D0000246002000230024158A05EA01039589A8
:1019E00005EA010413B10CB1012000E0002030BD74
:1019F0001AB183890B43838102E083898B438381FE
:101A000070470000002202881D4B98420ED01D4BEB
:101A100098420BD0B0F1804F08D01B4B984205D0B4
:101A20001A4B984202D01A4B984204D14FF68F734A
:101A30001A404B881A43174B984207D0164B9842CE
:101A400004D04FF6FF431A40CB881A4302808B889C
:101A500083850B8803850A4B98420BD0094B98422B
:101A600008D00E4B984205D00D4B984202D00D4B3A
:101A7000984201D10B7A03860123838270470000CC
:101A8000002C0140003401400004004000080040E8
:101A9000000C0040001000400014004000400140D5
:101AA000004401400048014010B540F225510D4866
:101AB00000F059F8A0B10B48001D0088C4B20A48D4
:101AC0000088B0F5C87F08DA074801880088401C04
:101AD000054A10800548445402E00020024908806D
:101AE00010BD0000003801403C000020C80000206C
:101AF0007047000010B540F225510B4800F033F854
:101B000080B10948001D0088C4B208480088B0F5BB
:101B1000C87F07DA054801880088401C034A108006
:101B20000348445410BD000000480040400000201D
:101B30000807002021B1828942F40052828104E02A
:101B400082894DF6FF731A40828170470246002059
:101B5000B1F5007F00D100BF13880B400BB101200D
:101B600000E00020704770B50246002400230025E5
:101B7000002040F66A16B14200D100BFC1F3421501
:101B800001F01F03012606FA03F3012D02D1968905
:101B9000334006E0022D02D1168A334001E0968AD6
:101BA00033400C12012606FA04F41688344013B1AF
:101BB0000CB1012000E0002070BDF0B50346002408
:101BC00000260025002040F66A17B94200D100BF68
:101BD0001846C1F3421401F01F06012707FA06F563
:101BE000012C01D10C3004E0022C01D1103000E0B6
:101BF00014301AB107682F43076002E00768AF434B
:101C00000760F0BD2DE9F04786B005460E4600247A
:101C1000A24600BFA1460027B08900B100BF2F46F1
:101C20002C8A4CF6FF700440F08804432C82AC8967
:101C30004EF6F3100440B088318908437189084397
:101C40000443AC81AC8A4FF6FF400440B0890443A2
:101C5000AC8201A8FFF78AFC1F48874202D1DDF859
:101C600010A001E0DDF80CA0A88900F4004040B10C
:101C70000AEBCA0000EB0A1031684900B0FBF1F82A
:101C800007E00AEBCA0000EB0A1031688900B0FBDC
:101C9000F1F86420B8FBF0F004012009642101FB95
:101CA0001089A88900F4004040B1322000EBC9003F
:101CB000B0FBF1F000F00700044308E0322000EB35
:101CC00009106421B0FBF1F000F00F0004432C81F7
:101CD00006B0BDE8F087000000380140C1F30802FB
:101CE0008280704700BFFEE70FB430B5CBB0054629
:101CF00001AC50A800904FF4947101A8009B4F9A3A
:101D000000F080F8002000900BE014F8011B28463A
:101D1000FFF7E4FF00BF40212846FFF717FF002828
:101D2000F9D020780028F0D14BB030BC5DF814FB1E
:101D30002DE9F04105462C4640211148FFF706F9F0
:101D4000002619E0274607F08007802F04D1802164
:101D50000B48FFF7FDF803E080210948FFF7F6F88C
:101D60006006040E40210648FFF7F2F840210448BF
:101D7000FFF7ECF8701CC6B2082EE3DBBDE8F0817B
:101D8000000C014010B50446FFF700FA7820FFF779
:101D9000CFFFFFF7E1F80020FFF7CAFFFFF7DCF8FD
:101DA0002046FFF7C5FFFFF7D7F8FFF703FA10BD8E
:101DB00010B50446FFF7EAF97820FFF7B9FFFFF7FF
:101DC000CBF84020FFF7B4FFFFF7C6F82046FFF737
:101DD000AFFFFFF7C1F8FFF7EDF910BD0FB4084BE7
:101DE00010B504A902AA039800F0F4F8044602A969
:101DF000002000F091FC204610BC5DF814FB0000B0
:101E0000192700087CB5044600201D461646002907
:101E10000BD0491ECDE90041044B6A4629463046A5
:101E200000F0D8F8009A002111707CBD032700084B
:101E300002E008C8121F08C1002AFAD17047704793
:101E4000002001E001C1121F002AFBD170470000F1
:101E50002DE9FF5F82B00021DDE90430020DDDF8DD
:101E600040B0034318D044F61050A2F2FF32424370
:101E70001514119801281FD0A5EB0B00401C5FEA38
:101E8000000A4FF000064E4FDFF83891B04650463A
:101E900015D5CAF1000413E0119801244AA30128C2
:101EA00001D16FEA0B010298119AC0E90031C0E933
:101EB000024206B0BDE8F09FCBF10000DFE7044628
:101EC0000021404A491842EB0450CDE9001012E0CD
:101ED000E00707D032463B4640464946FEF78DFABA
:101EE0008046894632463B4610461946FEF785FA3B
:101EF00006460F466410002CEAD1DDE90401DDE955
:101F00000023BAF1000F06DAFEF777FA42464B4695
:101F1000FEF773FA05E0FEF787FC42464B46FEF7F4
:101F200083FC04460E460022284BFEF729FB03D80B
:101F30004FF0FF30014607E00022254B2046314696
:101F4000FEF7B4F9FEF7DFFC102409E0002C0ADBF1
:101F50000A220023FEF772FB039B30321A55641EDF
:101F600050EA0102F2D1641C039AC4F11103144433
:101F7000119A012A03D0012208430DD10AE0084337
:101F800004D000204FF0110B119072E7A3EB0B056A
:101F90006D1E0DE05B4504DD4FF0000205F101050B
:101FA00004E003DA4FF00002A5F10105002AECD0AD
:101FB00002981199C0E90231C0E9004579E70000B3
:101FC000000014400000F03F300000000000F0432B
:101FD0000000E03F2DE9FF4F95B09B46894606463D
:101FE00000250FE2252877D100242746F84A012151
:101FF000059400E0044316F8013F203B01FA03F08A
:102000001042F7D130782A2811D06FF02F033078A2
:10201000A0F13002092A16D8059A44F0020402EB16
:10202000820203EB42021044761C0590EFE759F858
:10203000042B0592002A03DA504244F40054059020
:1020400044F00204761C30782E2816D116F8010FC1
:1020500044F004042A280DD06FF02F023078A0F14C
:102060003003092B09D807EB870302EB4303C7189A
:10207000761CF3E759F8047B761C30786C280FD077
:1020800006DC4C2817D068280DD06A2814D104E04B
:10209000742810D07A280FD10DE044F400140AE01F
:1020A00044F4801401E044F440147278824202D176
:1020B00004F58014761C761C307866280BD013DC6F
:1020C000582877D009DC002875D04528F6D0462856
:1020D000F4D047281AD19DE118E0632835D0642850
:1020E00079D0652812D195E1702873D008DC672873
:1020F000F1D069286FD06E280DD06F2806D1B5E0D9
:1021000073282CD0752875D0782874D05A46179922
:1021100090476D1C75E1C4F30250022809D00328D2
:102120000DD0D9F8001004280DD00D6009F1040974
:1021300067E1D9F80010EA17C1E90052F6E7D9F8CB
:1021400000100D80F2E70D70F0E719F8041B8DF810
:10215000001000208DF80100EA46012003E059F844
:1021600004AB4FF0FF3061074FF0000102D40DE0E7
:1021700008F101018846B9420FDA8045F8DB1AF808
:1021800008100029F4D108E008F1010188468142D5
:10219000FADB1AF808100029F6D105985B46A0EB87
:1021A000080721463846179A00F094FA284400EBB5
:1021B000080507E04DE029E10DE01AF8010B5A4649
:1021C00017999047B8F10108F7D25B462146384687
:1021D000179A13E142E00A220092C4F302524FF030
:1021E000000A022A08D059F804CB032A4FEAEC71FE
:1021F0000AD00DE029E02AE009F1070121F00702E9
:10220000F2E802C1914609E00FFA8CFC4FEAEC714A
:10221000042A03D14FFA8CFC4FEAEC71002907DA4B
:102220000A460021DCF1000C61EB02012D2202E0E4
:10223000220504D52B228DF80420012203E0E207B9
:1022400001D02022F7E7904659E00A2102E010224F
:102250000DE010214FF0000A00910BE010224FF02A
:10226000000A44F004040827009203E008224FF01B
:10227000000A0092C4F30252022A05D059F804CB96
:102280000021032A08D009E009F1070121F0070223
:10229000F2E802C1914605E01FFA8CFC042A01D144
:1022A0000CF0FF0C4FF00008220728D5702806D04C
:1022B000009B83F0100353EA0A0305D00EE040228E
:1022C0008DF80420012208E05CEA010206D03022E9
:1022D0008DF804208DF8050002229046009B83F0C3
:1022E000080353EA0A030AD15CEA010201D162073A
:1022F00005D530228DF804204FF001087F1E5828A4
:1023000004D034A003900EA802900DE036A0F9E7A7
:1023100053466046009AFEF791F984460398825C22
:102320000298401E029002705CEA0100F0D102980F
:1023300006A9081A00F1200A600702D524F48034A7
:1023400000E00127574502DDA7EB0A0000E000206E
:1023500000EB0A01009005984144401A0590E00303
:1023600006D45B462146179A059800F0B3F9054458
:10237000002706E001A85A46C05D179990476D1CDA
:102380007F1C4745F6DBE0030CD55B462146179AD8
:10239000059800F09FF9054404E030205A4617994B
:1023A00090476D1C0099481E00900029F5DC08E05C
:1023B000029802995A460078491C02911799904751
:1023C0006D1CBAF10001AAF1010AF1DC65E100001F
:1023D00009280100303132333435363738396162FB
:1023E00063646566000000003031323334353637BF
:1023F00038394142434445460000000000F058F996
:102400000544761C307800287FF4ECAD19B02846DE
:10241000BDE8F08F620700D4062709F1070222F019
:10242000070CFCE80223E14603F000485FEA080CD1
:1024300002D00FF2702C0DE05FEA045C02D50FF2BF
:10244000682C07E05FEAC47C02D00FF2602C01E048
:10245000AFF2700C4FF0FF3823F00043CDF850C0BE
:1024600065280CD006DC452809D046281DD0472811
:102470003DD13DE0662818D067287ED138E00021A4
:10248000112F01DB112000E0781CCDE9000106A925
:102490000EA8FFF7DDFCDDE90F010E9A0391002184
:1024A000009207F1010A04914DE04FF000400097BF
:1024B000CDE9011006A90EA8FFF7CAFCDDE90F025D
:1024C00003920E9B11990022DDF80CA00093049258
:1024D00011B9791C00EB010AB7EB0A0004D4C0F172
:1024E000FF3007F1010A0490AAEB0700019044E0D5
:1024F000012F00DA01270021112F01DD112000E05A
:102500003846CDE9000106A90EA8FFF7A1FCDDE9D8
:102510000F010E9A0391002104910092BA462107FF
:102520000CD40399514500DA8A46BAF1010F05DD52
:10253000009AAAF10101515C302908D0B84202DAB0
:1025400010F1040F06DA0121CDE9011015E0AAF11E
:102550000101E9E7002805DC049901440491AAEB94
:10256000000102E0411C514500DD8A460499401AF1
:10257000401C01904FF000400290200704D40198C5
:10258000504501DBCDF8048000208DF84F00029803
:102590000DF14F07B0F1004F25D02B200E9002987F
:1025A0004FF0020800280CDA404202902D200E90D5
:1025B00007E00A210298FEF72BF83031029007F865
:1025C000011DB8F10001A8F10108F2DC0298002811
:1025D000EFD1791E0E980870307800F0200040F09E
:1025E000450007F8020D12A8C01B00F10708149857
:1025F000007800B1012000EB0A01019801EBE071C5
:1026000005984144401A401E0590E00306D45B46FD
:102610002146179A059800F05DF805441498007853
:1026200018B15A46179990476D1CE00324D55B46B4
:102630002146179A059800F04DF805441CE00498CF
:10264000002807DBDDE90301884203DD0098405CD8
:10265000179901E0179930205A469047049805F1E0
:102660000105401C04900198401E019004D12E20C9
:102670005A46179990476D1CBAF10001AAF1010A58
:10268000DDDC05E017F8010B5A46179990476D1CE1
:10269000B8F10001A8F10108F4DC5B462146179A65
:1026A0000598ABE62D0000002B0000002000000084
:1026B0002DE9F041044600251E461746880404D43F
:1026C00005E039462020B0476D1C641EF9D5284628
:1026D000BDE8F0812DE9F041044600251E469046F4
:1026E000C80301D5302700E02027880404D505E081
:1026F00041463846B0476D1C641EF9D52846BDE8F2
:10270000F0814A68002A06D00A68531C0B601070DA
:102710004868401E486070470A68531C0B60107080
:102720007047000008480078012808D10748006871
:1027300008B9012000E000200449086002E00120FF
:10274000024908607047000094000020A001214267
:102750002DE9F04169480068962879DB0120684935
:10276000087000F065FD674908609621664800F032
:102770009BFA6649087096226549634800F0EAFAB8
:102780006449086008460068FDF7E7FE0646624AAD
:10279000624BFDF7F5FE02D261485E4908605B4876
:1027A0000078002828DD5F495A480068FDF71CFFC3
:1027B00022D25D4957480068FDF720FF1CD25348DC
:1027C00000785A495A4A1278885452480168594840
:1027D000574A127840F8221055480078401C544956
:1027E000087008460078062806DA484800785249FA
:1027F00008604848006848600020404908604C482C
:102800000078062877DB05204949087000240BE092
:102810004648005D49490855464850F82400484953
:1028200041F82400601CC4B2062CF1DB00240BE04C
:102830003E49601C085C08553E49601C51F8200068
:1028400041F82400601CC4B2052CF1DB00243AE0FE
:1028500051E0002531E03948415D0246681C105CBA
:1028600081420CDD1146681C085C2849087010463E
:10287000415D681C11542548007811464855304B7D
:102880006A1C53F822101A4652F82500FDF7B6FECE
:1028900011D22B49681C51F820001E4908602848B5
:1028A00050F825100246681C42F8201019480068AC
:1028B000114641F82500681CC5B2C4F10500A842C4
:1028C000C9DC601CC4B2052CC3DB1C4989781B4AD7
:1028D000D278881800EBD0714910174A1160184A55
:1028E000D1689068FDF71AFC06464FF08041FDF76D
:1028F0009FFC11494860BDE8F0810000680000209D
:102900004C00002050000020280A002089000020F0
:10291000800C00208C0000209A99999999F95840D0
:10292000CDCCC7420000CA4200008C428300002088
:102930007C000020D80F0020040000207D00002033
:10294000C00F002010B5214800F046FC1F49086860
:102950001F49FDF753FE21D21C4948681C49FDF769
:102960004DFE1BD201221B49184800F0AFF8194850
:1029700000681949194A126841F822001348406852
:102980001749164A126841F8220014480068401C92
:102990001249086000201349086015E000200F4923
:1029A0000860104801680068401C0E4A10609629B3
:1029B00009DD00201146086001200B490870002045
:1029C0000A490860486010BD00BFFCE758000020BD
:1029D0000050434760000020280A002068000020C3
:1029E000800C00206C0000204C000020040000201F
:1029F00010B56FF00400FEF702FF0A4800680A49AC
:102A0000B0FBF1F0094908700846007800EB40017E
:102A1000C1EBC0104FF6FF7101EAC0000449088005
:102A200010BD00001000002000127A0038000020C5
:102A30003A0000200146114A12884A434FF0E02331
:102A40005A6100229A611A46126942F001021A6123
:102A500000BF4FF0E022106900F001021AB100F44B
:102A60008032002AF5D04FF0E022126922F00102F4
:102A70004FF0E0231A6100229A6170473A0000206B
:102A80000146114A12784A434FF0E0235A6100226E
:102A90009A611A46126942F001021A6100BF4FF0B2
:102AA000E022106900F001021AB100F48032002A1D
:102AB000F5D04FF0E022126922F001024FF0E0233E
:102AC0001A6100229A617047380000202DE9F05FFA
:102AD00007468846914600240025002600BF25E0D1
:102AE00057F82600134908600024A2460DE0114A59
:102AF00052F82410104A52F82400FDF767FB834671
:102B00005146FDF70BFB8246641C1D2CEFDB48F899
:102B100026A01C2507E0074850F825100246681C2F
:102B200042F820106D1E002DF5DA761C4E45D7DBDD
:102B3000BDE8F09FD80E00203C33000890B0FEF7AF
:102B400073FE4FF4A060FEF7F7FAFFF751FFFDF7B1
:102B5000EBFF00203A4908604FF4E13000F09EFBA3
:102B6000FEF738FB01203749C1F8A001FEF76AF8EB
:102B700000F002FBFEF7FCF940F2CF2142F20F70A9
:102B8000FEF7E6FEFEF76EFC59E0FFF7E1FD2E488A
:102B90000078002850D12D480078012804D1002069
:102BA0002A490870FEF75EFC29480068012846D9CA
:102BB00000202749086027480078401C25490870F4
:102BC000084600780A2828D123480068FDF787FCCA
:102BD00082462249FDF72CFB8146FDF7BEFC0546E7
:102BE0000E461F494868FDF7B8FC074688461D4851
:102BF00000781D490968CDE90078CDE90256CDE994
:102C00000410174819A1026806A8FFF7E7F8C4B234
:102C100022461EA12248FFF767F80E4800780F28C9
:102C200007D100200B49087006AA1EA11C48FFF717
:102C30005BF8FFF777FD02E0012001490860A4E797
:102C4000A001214200002142000000204C00002091
:102C5000900000200C0000205000002000002041C7
:102C60000400002094000020980000202564522FCA
:102C70006D57252E3166252557252E31664357255C
:102C800064572564572F722F6E00000041542B4368
:102C9000495053454E443D302C25640D0A00000038
:102CA00000380140257300002DE9F04705460E4627
:102CB0004FF00008002407E055F824104046FDF7C7
:102CC0002DFA8046601C84B2B442F5DB3046FDF735
:102CD0000FFC814649464046FDF7AAFA804600248B
:102CE00010E055F824004146FDF788FC08D205EBBA
:102CF000840148684146FDF777FC01D2274603E08E
:102D0000601C84B2B442ECDB00BF601C84B211E0F2
:102D100055F824004146FDF771FC09D205EB84010A
:102D200048684146FDF760FC02D2E01B87B203E031
:102D3000601C84B2B442EBDB00BF142F08DD642FAB
:102D400006DA40F6B83090FBF7F080B2BDE8F087C5
:102D50000020FBE72DE9F04F91B005460E461746DF
:102D600028680F90D5F8008030680E90D6F8009053
:102D7000012423E055F824100F98FDF735FC02D20A
:102D800055F824000F9055F824104046FDF736FC06
:102D900001D255F8248056F824100E98FDF724FC33
:102DA00002D256F824000E9056F824104846FDF73B
:102DB00025FC01D256F82490601C84B2BC42D9DBB9
:102DC00049460E98FDF7FCF941460C90FDF7FEF9D7
:102DD000834641460F98FDF7F3F949460C90FDF7FD
:102DE000F5F959460D90FDF723FA82465046FDF756
:102DF000B4FB174A174BCDE90401FDF7FEFACDE904
:102E000008015046FDF7A9FBCDE904015046FDF746
:102E1000A4FB114A114BCDE90001FDF7EEFACDE913
:102E20000201DDE90423FDF7E8FACDE90601DDE959
:102E30000823FDF73BFA0A4A0A4BCDE90A01FDF7E0
:102E400035FACDE90C01FDF7B3FB11B0BDE8F08F09
:102E5000B4C876BE9F5A3E4048E17A14AE8746C059
:102E6000AE47E17A14B6574010B50120FFF708FECF
:102E700010BD000008B501210820FEF767FB1420F3
:102E80008DF803004FF48070ADF8000003208DF83A
:102E9000020069460548FDF7C5FF4FF40070ADF824
:102EA000000069460148FDF7BDFF08BD000C014068
:102EB0002DE9F0410446884616461F4600F0D6F834
:102EC000E0B200F089F81A480078012802D1002009
:102ED000BDE8F08108F0FF0000F07EF814480078AB
:102EE000012801D10020F3E700F0C0F8611CC8B24E
:102EF00000F072F80E480078012801D10020E7E7C1
:102F000000250FE000F046F806F8010B781EA842F5
:102F100003D1012000F000F902E0002000F0FCF8ED
:102F2000681C85B2BD42EDDB00F0BAF80120CFE7A6
:102F30005400002070B504460D4600F097F8E0B24A
:102F400000F04AF812480078012801D1002070BD35
:102F5000284600F041F80E480078012801D10020F1
:102F6000F5E700F083F8611CC8B200F035F80848B6
:102F70000078012801D10020E9E700F00BF80646AF
:102F8000012000F0C9F800F08BF83046DFE70000C0
:102F90005400002070B50024002515E06006040EE2
:102FA00001200B490860FFF75FFF4FF400710948EB
:102FB000FDF7C3FF08B1601CC4B2002004490860DB
:102FC000FFF752FF681CC5B2082DE7DB204670BD35
:102FD000A0812142000C014070B5044600251BE091
:102FE00004F0800018B101201C49086002E00020B4
:102FF0001A490860FFF738FF01201849091F0860C7
:10300000FFF732FF00201649C1F8A001FFF72CFF9F
:103010006006040E681CC5B2082DE1DB01200F49D3
:103020000860FFF721FF01200D49C1F8A001FFF75B
:103030001BFF4FF400710B48FDF77FFF18B1012013
:103040000949087002E00020074908700020034980
:10305000091F0860FFF708FF70BD0000A48121422E
:1030600000802142000C01405400002010B50120D6
:10307000094908600949C1F8A401FFF7F5FE0020DD
:103080000549091D0860FFF7EFFE00200349C1F85C
:10309000A001FFF7E9FE10BDA0812142008021427E
:1030A00010B500200649086001200649C1F8A001BA
:1030B000FFF7DAFE012002490860FFF7D5FE10BDD8
:1030C000A48121420080214270B504460D46164677
:1030D000FFF7CCFFE0B2FFF77FFF0E480078012832
:1030E00001D1002070BD2846FFF776FF094800781F
:1030F000012801D10020F5E73046FFF76DFF0548B4
:103100000078012801D10020ECE7FFF7C9FF01207A
:10311000E8E700005400002010B504468CB10120FF
:1031200013490860FFF7A0FE01201249C1F8A00171
:10313000FFF79AFE00200E49091F0860FFF794FE72
:1031400014E000200A490860FFF78EFE01200949BB
:10315000C1F8A001FFF788FE00200549091F08609B
:10316000FFF782FE01200349C1F8A40110BD000051
:10317000A48121420080214210B5FFF77BFE00F0C0
:1031800005F8FDF757FFFDF711FF10BD0EB5012142
:103190000920FEF7DBF9FDF782FF2020ADF80800DB
:1031A00048208DF80B0002A90A48FDF73BFE0521D7
:1031B0000120FDF717FE2020009000208DF804006C
:1031C0000C208DF8050001208DF806006846FDF7FB
:1031D000EFFC0EBD000C01401FB50446062302AAF9
:1031E0000721AE20FFF764FE9DF8080000049DF85B
:1031F000091040EA01209DF80A100843C0F31100AD
:1032000000909DF80B0000049DF80C1040EA01208E
:103210009DF80D100843C0F3110001900098FDF7D0
:1032200067F920600198FDF763F960601FBD000039
:103230002DE9F05F1F21AE20FFF77CFE14490860E6
:103240002021AE20FFF776FE1249086001222121DD
:10325000AE20FFF739FF0F480068FDF74EF98046B2
:1032600000220D4BFDF7C9F804460D4608490968D0
:1032700001EB81014800FDF740F9064622462B4646
:10328000FDF714F88246FDF749F9BDE8F09F00000C
:1032900074000020780000200000E43F10B586B0E4
:1032A0000446012144F20400FEF750F94FF4007087
:1032B000ADF8140003208DF8160018208DF81700C3
:1032C00005A91C48FDF7AEFD4FF48060ADF8140071
:1032D00004208DF8170005A91648FDF7A3FD252049
:1032E0008DF8000002208DF801008DF80200012009
:1032F0008DF803006846FDF7E7FE01940020ADF865
:103300000800ADF80A00ADF80C00ADF810000C2074
:10331000ADF80E0001A90848FEF774FC012240F246
:1033200025510548FEF749FC01210348FEF702FC40
:1033300006B010BD00080140003801407B34CABA15
:103340006FEE10BBC55D57BB450C91BB4DEE9BBBF3
:10335000741C45BBE8AC0F3B52B1423C6113D83CF6
:103360008D3E383D2017873D9BAFB13D09EDD53DE2
:10337000D248EE3DF5DEF63DD248EE3D09EDD53DB5
:103380009BAFB13D2017873D8D3E383D6113D83C42
:1033900052B1423CE8AC0F3B741C45BB4DEE9BBBAD
:1033A000450C91BBC55D57BB6FEE10BB7B34CABAF1
:1033B0000000000000000000002F000000000700D7
:1033C000070000147F147F1400242A7F2A12006251
:1033D00064081323003649552250000005030000FD
:1033E00000001C224100000041221C000014083E85
:1033F00008140008083E0808000000A0600000084B
:10340000080808080000606000000020100804029E
:10341000003E5149453E0000427F4000004261515C
:103420004946002141454B31001814127F100027F6
:1034300045454539003C4A494930000171090503B9
:1034400000364949493600064949291E00003636EA
:10345000000000005636000000081422410000144D
:10346000141414140000412214080002015109062A
:1034700000324959513E007C1211127C007F4949AB
:103480004936003E41414122007F4141221C007FDC
:1034900049494941007F09090901003E4149497AEA
:1034A000007F0808087F0000417F41000020404164
:1034B0003F01007F08142241007F40404040007FD0
:1034C000020C027F007F0408107F003E4141413E14
:1034D000007F09090906003E4151215E007F09195C
:1034E00029460046494949310001017F0101003F59
:1034F0004040403F001F2040201F003F4038403FD9
:10350000006314081463000708700807006151493C
:10351000454300007F41410000552A552A550000CF
:1035200041417F000004020102040040404040404D
:10353000000001020400002054545478007F4844E5
:10354000443800384444442000384444487F00381C
:103550005454541800087E0901020018A4A4A47C45
:10356000007F080404780000447D4000004080840F
:103570007D00007F102844000000417F4000007C57
:1035800004180478007C0804047800384444443863
:1035900000FC242424180018242418FC007C0804AF
:1035A000040800485454542000043F444020003C88
:1035B0004040207C001C2040201C003C4030403C0F
:1035C000004428102844001CA0A0A07C004464549F
:1035D0004C441414141414140000000000000000E3
:1035E0000000000000000000000000F800000000E3
:1035F000000000333000000000100C06100C060024
:10360000000000000000000040C07840C07840008A
:10361000043F04043F040400007088FC08300000EC
:10362000001820FF211E0000F008F000E018000044
:1036300000211C031E211E0000F0088870000000FD
:103640001E2123241927211010160E00000000004F
:103650000000000000000000000000E0180402006C
:10366000000000071820400000020418E0000000DD
:103670000040201807000000404080F080404000DB
:103680000202010F01020200000000F00000000031
:103690000101011F01010100000000000000000005
:1036A00080B070000000000000000000000000007A
:1036B0000001010101010101000000000000000003
:1036C000003030000000000000000000806018049E
:1036D000006018060100000000E010080810E0007B
:1036E000000F102020100F00001010F80000000044
:1036F0000020203F2020000000700808088870008B
:10370000003028242221300000300888884830000A
:103710000018202020110E000000C02010F800002A
:1037200000070424243F240000F8088888080800C3
:103730000019212020110E0000E0108888180000D8
:10374000000F112020110E0000380808C8380800AA
:103750000000003F0000000000708808088870002A
:10376000001C222121221C0000E010080810E000AB
:103770000000312222110F00000000C0C000000034
:103780000000003030000000000000800000000059
:103790000000806000000000000080402010080051
:1037A000000102040810200040404040404040001A
:1037B00004040404040404000008102040800000F5
:1037C0000020100804020100007048080808F000FA
:1037D0000000003036010000C030C828E810E000CA
:1037E0000718272423140B000000C038E000000055
:1037F000203C23020227382008F8888888700000BF
:10380000203F202020110E00C03008080808380092
:10381000071820202010080008F808080810E00009
:10382000203F202020100F0008F88888E8081000AA
:10383000203F20202320180008F88888E80810007E
:10384000203F200003000000C030080808380000B6
:1038500007182020221E020008F808000008F808B7
:10386000203F210101213F20000808F8080800003E
:103870000020203F2020000000000808F808080071
:10388000C08080807F00000008F888C028180800E9
:10389000203F20012638200008F808000000000022
:1038A000203F20202020300008F8F800F8F8080019
:1038B000203F003F003F200008F830C00008F80813
:1038C000203F200007183F00E01008080810E00023
:1038D0000F10202020100F0008F808080808F0003A
:1038E000203F210101010000E01008080810E0005D
:1038F0000F18242438504F0008F8888888887000F2
:10390000203F2000030C3020007088080808380091
:103910000038202121221C00180808F80808180087
:103920000000203F2000000008F808000008F80808
:10393000001F202020201F000878880000C83808B9
:10394000000007380E010000F80800F80008F80031
:10395000033C0700073C03000818688080681808CB
:1039600020302C03032C30200838C800C838080049
:103970000000203F2000000010080808C838080098
:103980002038262120201800000000FE020202003C
:103990000000007F40404000000C30C000000000EC
:1039A000000000010638C00000020202FE00000014
:1039B000004040407F0000000000040202020400BA
:1039C00000000000000000000000000000000000F7
:1039D00080808080808080800002020400000000DF
:1039E00000000000000000000000808080800000D7
:1039F0000019242222223F2008F8008080000000C5
:103A0000003F112020110E00000000808080000087
:103A1000000E112020201100000000808088F80096
:103A2000000E112020103F200000808080800000C8
:103A3000001F222222221300008080F0888888182C
:103A40000020203F20200000000080808080800037
:103A5000006B94949493600008F8008080800000CC
:103A6000203F210000203F200080989800000000A7
:103A70000020203F202000000000008098980000D7
:103A800000C08080807F000008F8000080808000F7
:103A9000203F24022D302000000808F8000000001C
:103AA0000020203F202000008080808080808000D7
:103AB000203F20003F20003F808000808080000069
:103AC000203F210000203F200000808080800000F7
:103AD000001F202020201F00808000808000000028
:103AE00080FFA12020110E00000000808080800057
:103AF000000E112020A0FF80808080008080800048
:103B000020203F2120000100000080808080800074
:103B10000033242424241900008080E080800000E9
:103B20000000001F20200000808000000080800036
:103B3000001F202020103F20808080000080808097
:103B400000010E3008060100808000800080808027
:103B50000F300C030C300F0000808000808080004C
:103B60000020312E0E312000808080000080808077
:103B700080818E7018060100008080808080800027
:103B80000021302C2221300000000000807C020245
:103B900000000000003F404000000000FF00000067
:103BA00000000000FF0000000002027C8000000016
:103BB0000040403F00000000000601010202040432
:103BC0000000000000000000E83B000800000020AA
:103BD000C8000000301E0008B03C0008C8000020EB
:103BE00028130000401E0008000000000000000034
:103BF000000000000000000000A24A0400000000D5
:103C0000000000000102030406070809000000008C
:103C1000010203040102030406070809020406085E
:103C20000000000000000000000000000000000094
:103C30000000000000000000000000000000000084
:103C40000000000000000000000000000000000074
:103C50000000000000000000000000000000000064
:103C60000000000000000000000000000000000054
:103C70000000000000000000000000000000000044
:103C80000000000000000000000000000000000034
:103C90000000000000000000000000000000000024
:103CA0000000000000000000000000000000000014
:04000005080000ED02
:00000001FF
